:020000021000EC
:10C0000000000120F1FA010019FB01001BFB0100F7
:10C010001DFB01001FFB010021FB010000000000CF
:10C0200000000000000000000000000023FB0100F1
:10C0300025FB01000000000027FB010029FB010097
:10C040002BFB01002BFB01009D0302002BFB0100D9
:10C0500051CE01002BFB01002BFB01002BFB01004B
:10C060002BFB01002BFB01002BFB01002BFB010034
:10C070002BFB01002BFB01002BFB01002BFB010024
:10C080002BFB010079FB01002BFB01002BFB0100C6
:10C090002BFB01002BFB01002BFB01002BFB010004
:10C0A0002BFB01002BFB01002BFB01002BFB0100F4
:10C0B0002BFB01002BFB0100000000000000000032
:10C0C0002BFB01002BFB01002BFB01002BFB0100D4
:10C0D0002BFB01002BFB01002BFB010000000000EB
:10C0E0000000000000000000000000000000000050
:10C0F0000000000000000000000000000000000040
:10C10000000000000000000000000000000000002F
:10C11000000000000000000000000000000000001F
:10C40000044B05481B1A062B02D9044B03B11847ED
:10C41000704700BF5B210020582100200000000071
:10C4200005490648091A891001EBD171491002D05B
:10C43000034B03B1184770475821002058210020B2
:10C440000000000010B5064C237843B9FFF7D8FF71
:10C45000044B13B10448AFF300800123237010BDD7
:10C4600058210020000000002453020008B5084BAA
:10C470001BB108490848AFF300800848036813B9A6
:10C48000BDE80840CCE7064B002BF9D09847F7E70A
:10C49000000000005C2100202453020054210020F1
:10C4A00000000000154B002B08BF134B9D46A3F561
:10C4B000803A00218B460F461348144A121A04F0A2
:10C4C000BEFD0F4B002B00D098470E4B002B00D029
:10C4D00098470020002104000D000D48002802D0DC
:10C4E0000C48AFF3008004F069FD2000290003F040
:10C4F000C1FF04F03DFD00BF000008000000012066
:10C5000000000000000000005821002058290020F1
:10C510000000000000000000BFF34F8F0549064BEC
:10C52000CA6802F4E0621343CB60BFF34F8F00BFD1
:10C53000FDE700BF00ED00E00400FA053EDF7047B4
:10C5400045DF704710B5034B0360044600F072FDF1
:10C55000204610BD9046020010B50446FFF7F2FFDA
:10C56000204603F09BFF204610BD000010B5034B92
:10C5700003600446FFF7E6FF204610BD4C39020079
:10C5800010B50446FFF7F2FF204603F087FF204670
:10C5900010BD000010F0800F0B4A02D10023137071
:10C5A000704713781070C22B0CD0C32B03D0822B92
:10C5B00004D00020704740F0C0007047AC280CBF8A
:10C5C00080200020704700BFD0210020028BF8B5EA
:10C5D00004460E46002A38D00D2936D0458B838B71
:10C5E000C18BAA4210D98B4210D2016A3046FFF7A4
:10C5F000D1FF4855638B0A2E03F10103638324D1D5
:10C60000A38B0133A38320E08B4201D3013BA3839F
:10C61000002399B2A9420FD2206AC75C0A2F03F106
:10C620000103F6D1013189B231B16A1A92B2628343
:10C63000014404F0F9FC03E0AA429CBF0023638399
:10C64000236831461B68204698470120F8BD00004A
:10C6500073B5514C51495248524D03F011FCC4F886
:10C660000056514803F0FEF910F0FF0F09D00020EA
:10C67000FFF764FFC4F800564FF0FF30FFF760FF8C
:10C6800018E04A4800F05EFE494800F0AAFC064661
:10C69000474800F0A4FC314602460DF1030004F0C7
:10C6A000C3FC9DF8033063B1414800F013FD40B175
:10C6B000C4F800564FF08043CC22C3F81C25FFF786
:10C6C0002BFF3C4802F09EFF05213A4802F0C4FDD2
:10C6D0000121384802F0C5FD00221146354802F01C
:10C6E000B8FD3221334803F0BFFB3221314803F05B
:10C6F000BBFB33212F4803F0B7FB38212D4803F053
:10C70000B3FB32212B4803F0AFFB3721294803F05C
:10C71000C1FB284802F036FF642003F01FFA2548C9
:10C7200002F070FF0121234802F096FD012121480B
:10C7300002F097FD002211461E4802F08AFD1E49B4
:10C740001C4803F09DFB012200211A4802F08CFDD9
:10C750009FED0F0B0221174803F09CFC02211548A6
:10C7600002F07AFD0121134802F07BFD13491148C4
:10C7700003F076FB102212490E4803F0C1FB0D486E
:10C7800002F000FF02B0BDE8704003F009BA00BF3C
:10C790007A008BFCFA210940000001407439020044
:10C7A000E42800203546526E80210020002200201F
:10C7B00078230020D4210020793902008739020033
:10C7C000EFBEADDE73B5314B3148324E324D4FF0D6
:10C7D000004200241A60112102229C601A7102F0AA
:10C7E000ABFF1A2300931422132316212B4802F0C7
:10C7F00075FEFF231A461946304600F039FF2A46D7
:10C8000027493046274E04F081FB2749274800F08E
:10C81000F9FF0A222649304600F0FCFF2A46254946
:10C82000304604F073FB244B2449254E08221A712C
:10C830001F225A71234A1A60234B5961102183F831
:10C8400024102249196016210122197413215C60F9
:10C850009C74DA741C835C839C83DC831C62597433
:10C8600030462146DC7300F062FB194C194B1A4923
:10C870001E60B4221A71204603F0E8FD17492A46CB
:10C88000204602B0BDE8704004F040BB7421002097
:10C89000802100200022002080200020D4210020C0
:10C8A000E9D5010078230020C8390200C821002002
:10C8B000ED3902006DC50100C0210020763A02006A
:10C8C000FC210020102400209C2300203C39020081
:10C8D000B4210020C8230020EE4F0200C90302004B
:10C8E000234B37B5234AC3F80026234C2348244D55
:10C8F00002F016F9234800F051F920464FF4E131D7
:10C9000003F014FC2046204C204903F0B9FA2049DA
:10C91000204600F022FD284600F01CFB0146204680
:10C9200000F018FD29461B4D204600F05AFE291D37
:10C93000204600F056FE02A9002301F8013D012225
:10C94000284600F08CFB2046134C00F040FD2046AA
:10C9500002F060FE204602F015FE104802F05AFF79
:10C960004FF08043CC22C3F81C2503B030BD00BF7C
:10C97000000001403546526EE428002063C6E05BAB
:10C98000C82100201024002000220020123A0200BA
:10C990005C3A020078230020D4210020802100206E
:10C9A00038B50025057329B90B4B0C4A0C482321D7
:10C9B00004F0B2FA01600B4951F82220027151F8DB
:10C9C000233083719DF8103051F8233043710223D6
:10C9D000C371856038BD00BF5E450200214502007D
:10C9E0006C4502006C4F0200037B23B943738373D1
:10C9F00003610123037370471FB50DF1100E0EE99B
:10CA00000E009DF80810026800230129C2F80035C5
:10CA1000039B08D004D3032907D143F0040304E0A7
:10CA200043F0020301E043F00603C2F85435019BD2
:10CA3000C2F824350123C2F8003505B05DF804FBC7
:10CA400010B5FFF7D1FF03688279C3F80825427952
:10CA5000C3F80C250279C3F81025034BBDE810403C
:10CA60000ECBFFF7C9BF00BFF023002010B485B084
:10CA700001AC84E80E0094E80E0005B05DF8044BAC
:10CA8000FFF7BABF70470368C3F81C15D3F8082135
:10CA9000002AFBD0D3F818050022C3F80821C0B241
:10CAA0007047000007B5094B09490A484FF080421A
:10CAB0001A6000229A6002221A711F2300931B221F
:10CAC0001E23FFF76DFF03B05DF804FBF023002089
:10CAD00000300040FC2300202DE9F84380460D463D
:10CAE000174601EB02090C464C45A4EB050609D09C
:10CAF000D8F8003014F8011B1B68404698470028FE
:10CB0000F2D100E03E463046BDE8F8837047203061
:10CB100003F0F3BA38B5437F0D462BB100F168043A
:10CB2000204603F0F8FA08B1002038BD2046294617
:10CB300003F0C6FA012038BD203003F0D0BA20300F
:10CB400003F0E1BA2DE9F0411E464FF47A73002557
:10CB50008360104B4560044640F8203B17468846EA
:10CB600003F0A3FA04F1680003F09FFA0A4B9DF862
:10CB70001820C4F8108053F8222062769DF81C20FB
:10CB8000676153F82230A376267665772046BDE8A4
:10CB9000F08100BFDC4502006C4F0200837E4FF045
:10CBA000A04203F5E07330B5012140F20C64C17678
:10CBB00042F82340437E03F5E07342F823400369C3
:10CBC0004FF0CC72C3F824250622C3F80025827EDC
:10CBD000C3F80825427EC3F80C25027E53B2D2B2B8
:10CBE00002F01F055C09A94060340F4D002B45F889
:10CBF000241006DA0D4B02F00F02134440221A767D
:10CC000006E003F1604303F56143402283F800230B
:10CC1000037E01215AB203F01F0301FA03F3520904
:10CC2000014941F8223030BD00E100E0FCEC00E0B9
:10CC30002DE9F8430646894698461546B2B100F1FB
:10CC40002007384603F047FA34690122C4F8889572
:10CC50002262C4F83475C4F838552260D4F84C31D7
:10CC60003BB9D4F82431002BF8D002E01046BDE8DF
:10CC7000F8830023C4F84C31D4F85C311BB9D4F8E4
:10CC80002431002BF8D00023C4F85C310122B8F124
:10CC9000000F02D1D4F8243143B16261D4F80431D9
:10CCA000002BFBD00023C4F8043107E0E261D4F884
:10CCB0004831002BFBD00023C4F84831D4F824318C
:10CCC00013B10023C4F82431D4F83C053066C0B257
:10CCD000BDE8F88310B5044680F8B010683003F062
:10CCE000FAF90123637710BD2DE9F04100230569AE
:10CCF0004377012790F8B030C5F8883500F1680611
:10CD000004462F623046C5F84465884603F0F5F9BD
:10CD10002369C5F848059F60D3F850211AB9D3F8A4
:10CD20002421002AF8D00022C3F85021304603F015
:10CD3000E4F9236930B1D3F860211AB9D3F824217A
:10CD4000002AF8D00022C3F860210122B8F1000FB8
:10CD500002D1D3F8241141B15A61D3F80421002A39
:10CD6000FBD00022C3F8042107E0DA61D3F84821A0
:10CD7000002AFBD00022C3F84821D3F8240170B167
:10CD80000022C3F82421D3F8C404C3F8C404022841
:10CD900005D0042814BF04200320BDE8F081BDE8BD
:10CDA000F0810121FFF7A0BF4369D3F8642170B57A
:10CDB000044682B10022012500F12006C3F8642157
:10CDC0000577304603F087F963694022C3F834657C
:10CDD000C3F838251D636369D3F86821D2B10025F3
:10CDE000C3F8685104F1680601236377257730465C
:10CDF00003F071F9D4F8B43003B1984765776569E9
:10CE00003046C5F8446503F078F96369C5F848050C
:10CE100001225A636369D3F804215AB10022C3F88E
:10CE20000421227F32B1D3F83C05D4F8B830206613
:10CE300003B198476369D3F8242142B10022C3F8B3
:10CE40002421D3F8D024C3F8D02401225A6170BD24
:10CE50000148FFF7A9BF00BF1024002007B5052334
:10CE600003228DE80C004FF04022042311460348B2
:10CE7000FFF768FE03B05DF804FB00BF102400203C
:10CE800010B5B0FA80F104464909162002F08AFE76
:10CE900021461620BDE8104002F0A6BE40780028CA
:10CEA0003BD0013800BF00BF00BF00BF00BF00BFC4
:10CEB00000BF00BF00BF00BF00BF00BF00BF00BF7A
:10CEC00000BF00BF00BF00BF00BF00BF00BF00BF6A
:10CED00000BF00BF00BF00BF00BF00BF00BF00BF5A
:10CEE00000BF00BF00BF00BF00BF00BF00BF00BF4A
:10CEF00000BF00BF00BF00BF00BF00BF00BF00BF3A
:10CF000000BF00BF00BF00BF00BF00BF00BF00BF29
:10CF100000BF00BF00BF00BFC3D1704708B5FFF717
:10CF2000BDFF01211720BDE8084002F05DBE10B52D
:10CF30004270044601700120FFF7A2FF0121172073
:10CF400002F030FE2046FFF7E9FF204610BD0160E9
:10CF500082807047006870478088704729DF70477B
:10CF600028DF704703681868013018BF0120704738
:10CF700008B54FF080531A690368B3FBF2F3184603
:10CF8000FFF7EEFF1128FAD008BD38B504460D466C
:10CF90001946FFF7EDFF8B081A4629462068FFF770
:10CFA000DDFF1128F8D038BD10B502680846043AF4
:10CFB000441AA34204D952F8044F40F8044BF7E74F
:10CFC00010BD0B6843608B8803817047002343606A
:10CFD0000381704708B50160FFF7F8FF08BD807A4C
:10CFE0007047C0687047007C704700207047C36876
:10CFF000585C704770B50D46114602680446D66904
:10D000001A46B0470123A374A36923B121462846D9
:10D01000BDE87040184770BD70B5044608460D461F
:10D0200004F07AFE2368C2B229462046DB69BDE8D7
:10D0300070401847044B10B504460360C06808B13F
:10D0400003F0EAFF204610BDFC45020010B504467F
:10D05000FFF7F0FF204603F021FA204610BD10B57F
:10D06000837A9A42044628BF1A460274C06803F0C5
:10D07000DBFF606928B1036821461B68BDE81040EA
:10D080001847012010BD000070B504461D46164625
:10D09000043042F6030200F08FF8142D4FF0000226
:10D0A00028460A4B236028BF1420A072E260227435
:10D0B0006674A274E2746261A261E261226215B1D7
:10D0C00003F0A2FFE060204670BD00BFFC450200F7
:10D0D000407C704703460022807C9A747047C07C75
:10D0E00070470346002ADA7414BF07220822084654
:10D0F00053F822200AB11946104770474161704722
:10D100007047704770470020704770477047002095
:10D1100070470020704700207047002070470020B3
:10D1200070470020704700207047002070470020A3
:10D1300070470020704700207047002070477047FC
:10D1400070477047704710B5044603F0A7F92046B2
:10D1500010BD0000054A0260642282800121002285
:10D16000C28002818172C260026170472C46020057
:10D17000016170470120704710B5034B03600446FE
:10D18000FFF758FF204610BD9046020010B5044638
:10D19000FFF7F2FF204603F081F9204610BD0000A2
:10D1A00038B504461D46FFF76FFF024B2574236018
:10D1B000204638BD9046020010B50446FFF7C7FE72
:10D1C000024A137801331370204610BDCC2400208E
:10D1D000014B1878704700BFCC240020C06803685A
:10D1E0001B6A1847A0F10400FFF7F8BFC068036886
:10D1F0005B6A1847A0F10400FFF7F8BFC068036836
:10D200009B6A1847A0F10400FFF7F8BFC0680368E5
:10D21000DB6A1847A0F10400FFF7F8BFC068036895
:10D220001B6B1847A0F10800FFF7F8BFC068036840
:10D230005B6B1847A0F10800FFF7F8BFC0680368F0
:10D240009B6B1847A0F10800FFF7F8BFC06810B447
:10D250000468E46BA4465DF8044B6047A0F1080045
:10D26000FFF7F4BFC06803681B6C1847A0F1080003
:10D27000FFF7F8BFC06803685B6C1847A0F10800AF
:10D28000FFF7F8BFC06803689B6C1847A0F108005F
:10D29000FFF7F8BFC0680368DB6C1847A0F108000F
:10D2A000FFF7F8BFD0F8703113B100F5AE70184732
:10D2B0007047D0F8743113B100F5AE70184770475D
:10D2C00030B414461A4623685D6A9DF8083000F5AC
:10D2D000AE71AC46204630BC60477047704770B5B1
:10D2E000054600F5AE7411462046FFF76AFED5F8F4
:10D2F00068311BB12046BDE87040184770BDD0F8BA
:10D300006C3110B500F5AE740BB12046984720463D
:10D31000BDE81040FFF75ABE10B4144600F5AE71D8
:10D320001A4620465DF8044BFFF7DBBE10B41446E6
:10D3300000F5AE711A4620469DF804305DF8044BA6
:10D3400000F042BAC0680368DB681847C068036829
:10D350001B691847C0F888107047C0F898107047CC
:10D3600038B5D0F8A43004460D463BB900F008FAB1
:10D3700000B2800003F048FEC4F8A40094F8A8208E
:10D38000D4F8A43043F8225094F8A830013384F83C
:10D39000A83038BD10B50446FFF71AFF00B2800070
:10D3A00003F032FE04F1AC03036004F1B803436000
:10D3B00004F1DC03836004F1FC03C36004F58473AF
:10D3C0000361052384F8A030C4F89C0010BD2DE94A
:10D3D000F043D0F88C10A5B0002304468DF81C3023
:10D3E000E1B10DA800F02EFA0DA800F05DFA0228B8
:10D3F00005468CBF152314238DF84C000DA88DF81D
:10D400004D3000F04FFA2A460146C5F114050DF1E2
:10D410004E0003F009FEEDB2012601E016250E468E
:10D42000D4F8881039B30DA800F00CFA0DA800F05C
:10D430003BFA431CAB4280461DDA1627774324ABE8
:10D440003B4402288CBF0622022203F8440C03F856
:10D45000432C0DA800F026FA24AB1F440146424697
:10D46000A7F14200023D03F0DFFD0136C8EB0505E0
:10D47000F6B205F0FF05D4F89010D1B194F89420DD
:10D48000BAB1022D15D9531C1620AB4200FB06F091
:10D4900024AB0344A4BF023DEAB2FF2503F8442CA9
:10D4A00003F8435C24AB1844423803F0BDFD013659
:10D4B000F6B2D4F89850BDB1284604F02DFCC0B2A5
:10D4C00014288ABF14238DF81C008DF81C309DF899
:10D4D0001C2090428CBF082009208DF81D00294691
:10D4E0000DF11E0003F0A0FDD4F89C3013B92046C6
:10D4F000FFF750FF002742F6030804F1040994F8EF
:10D50000A0309F4205DB002742F6030804F108091A
:10D510001BE0D4F89C3053F827502846FFF71CFD39
:10D52000404506D10DB1281F00E028464946FFF7C7
:10D53000E5FD0137E3E7D4F8A43053F82750284637
:10D54000FFF70AFD404505D0013794F8A8309F4207
:10D55000F1DB07E00DB1281F00E02846494600F046
:10D5600047F9F1E74BB104F594712046FFF7F8FE57
:10D5700004F59A712046FFF7F3FEE06894F8A810CE
:10D5800002680491D4F8A410039194F8A0100291B9
:10D590009DF81C30D4F89C10019107A9003300912C
:10D5A00018BF01239568314613AAA847E0680368AD
:10D5B0001B6D984725B0BDE8F08338B5D0F89C3096
:10D5C00004460D460BB9FFF7E5FE94F8A020D4F809
:10D5D0009C3043F8225094F8A030013384F8A030F6
:10D5E00038BDFFF7EABF0000154B10B503F1680224
:10D5F00003600446803342608360FFF7A7FED4F8DF
:10D60000A40008B103F008FDD4F89C0008B103F0B1
:10D6100003FD04F5987000F0B9F804F58270FFF787
:10D6200009FD04F1D800FFF705FD04F1B400FFF790
:10D6300001FD04F1100000F015FE204610BD00BFF2
:10D64000E446020010B50446FFF7CEFF204602F084
:10D6500025FF204610BD07B502AB022223F8021DAC
:10D66000D8301946FFF7FBFC03B05DF804FB00005F
:10D670002DE9F843354BDFF8E890DFF8E88003F157
:10D6800008020446026000F1100703F170028833BB
:10D69000002542608360384601F01CFA04F1B406AC
:10D6A000C4F88850C4F88C50C4F8905084F8945052
:10D6B000C4F89850C4F89C5084F8A050C4F8A45002
:10D6C00084F8A850224904F1AC0000F09BF8132321
:10D6D000022220493046FFF7D7FC02231A461E4992
:10D6E00004F1D800FFF7D0FC494604F1FC0000F03B
:10D6F00089F804232022414604F58270FFF7C4FC18
:10D70000494604F5947000F075F82022414604F56E
:10D71000987000F043F8214604F5AE70FFF75AFC0C
:10D7200010222946E76004F5B47003F088FC0B4929
:10D730003046FFF771FC29462046FFF78CFFE06872
:10D740002146FFF715FD2046BDE8F883DC460200C0
:10D75000B8460200BD460200C2460200D1460200A1
:10D76000C7460200CC46020010B50446FFF7EFFBA7
:10D77000024A137801331370204610BDCD240020D7
:10D78000014B1878704700BFCD240020704710B5BA
:10D79000044602F083FE204610BD000038B5044662
:10D7A0001546043042F60302FFF7DEFF054B236007
:10D7B0000023A572E372A36284F8223063622046DC
:10D7C00038BD00BF8C47020070B50446C3720D46D9
:10D7D0000C3011461A4603F027FC012384F822304E
:10D7E000A36A23B121462846BDE87040184770BDA2
:10D7F0004162704710B54FF420520446FFF7B4FF62
:10D80000204610BD10B54FF420520446FFF7D4FC5B
:10D81000204610BD13B501230446FFF7C1FC02A941
:10D82000064B2360002301F8013D01222046FFF74B
:10D8300016FC034B2360204602B010BD9C4702003B
:10D840004C390200F7B504460023216003750846F1
:10D850000E468DF804308DF805308DF8063004F052
:10D860005BFA451E002D1ADB277D0F2F17D8735D3D
:10D870002D2B01D1013510E07219002112F8012C75
:10D880008DF8042001A810228DF8053004F0CAFAA2
:10D8900027443871237D01332375023DE2E720469A
:10D8A00003B0F0BD04307047007D704771DF7047F2
:10D8B00072DF704773DF704775DF704776DF704740
:10D8C00077DF704778DF70477ADF70477CDF70471B
:10D8D0007EDF70477FDF704786DF704790DF7047DD
:10D8E00092DF704796DF704798DF704799DF704787
:10D8F000A0DF7047A2DF7047A3DF7047A4DF704747
:10D90000A6DF7047A9DF704760DF704761DF7047AF
:10D9100062DF704763DF704753DF704710DF704787
:10D9200011DF704790F85C00003018BF012070478D
:10D9300070B590F86D600023B34214DA1A01056FD8
:10D94000AC18AA588A420CD1E38973B1227B02F049
:10D95000020202F0FF0342B190F8740080F001006F
:10D9600070BD0133E8E7002070BD184670BD70B58A
:10D9700090F86D600023B3421ADA1A01056FAC18F3
:10D98000AA588A4212D1E189A1B1227B02F0020297
:10D9900002F0FF0382B1012380F874300022008F6F
:10D9A000FFF7A0FFB0FA80F0400970BD0133E2E755
:10D9B000002070BD084670BD184670BD70B590F867
:10D9C0006D600023B3421CDA1A01056FAC18AA5827
:10D9D0008A4214D1E389B3B1227B130704D590F8AE
:10D9E000740080F0010070BD02F0040202F0FF0339
:10D9F0004AB190F85C00003018BF012070BD0133BF
:10DA0000E0E7002070BD184670BDF0B590F86DE0FD
:10DA100085B0002474452FDA2501076F7E197D59E2
:10DA20008D4227D1F4894CB3357B15F00C0127D0FA
:10DA300090F85C1021B315F0080F14BF01250225E2
:10DA4000ADF80A300139012380F85C108DF80450DC
:10DA500080F87430002501A9008F8DF80550ADF8CD
:10DA60000640ADF808500392FFF73EFFB0FA80F091
:10DA7000400906E00134CDE7002002E0204600E046
:10DA8000084605B0F0BD70B590F86D600023B34254
:10DA900010DA1A01056FAC18AA588A4208D1E08939
:10DAA00048B1237B13F0300F14BF0120002070BD5C
:10DAB0000133ECE7002070BD7FB590F86D60002366
:10DAC000B3422EDA1A01056FAC18AA588A4226D141
:10DAD000E28942B3217B11F0300326D0012311F0FB
:10DAE000100F14BF194602211A44ADF80210ADF808
:10DAF0000620002102228DF80510ADF80810ADF8BF
:10DB00000A2080F874306A4401A9008F8DF804302F
:10DB10000392FFF7E9FEB0FA80F0400906E0013316
:10DB2000CEE7002002E0104600E0184604B070BDC9
:10DB300003681B6C18477FB590F86D600023B342F3
:10DB40002ADA1A01056FAC18AA588A4222D1E28952
:10DB500022B3237B13F030034FF0000120D00123C8
:10DB60001A44ADF806200222ADF802108DF8051017
:10DB7000ADF80810ADF80A2080F874306A4401A9A5
:10DB8000008F8DF804300392FFF7AEFEB0FA80F0FC
:10DB9000400906E00133D2E7002002E0104600E031
:10DBA000184604B070BD11F1270F08B514DB11F150
:10DBB0001D0F14DB11F1130F14DB11F10F0F14DB28
:10DBC00011F10B0F14DBCA1D15DBCB1C16DB002972
:10DBD000D4BF0020042013E06FF0270010E06FF0A6
:10DBE0001D000DE06FF013000AE06FF00F0007E07A
:10DBF0006FF00B0004E06FF0070001E06FF003002E
:10DC0000FFF75EFEB0FA80F0400908BD1321008FD7
:10DC1000FFF754BE07B501466846FFF747FE08699F
:10DC200020B103680DF10102DB69984703B05DF88C
:10DC300004FB000013B5044602A8002340F8043D8D
:10DC4000FFF76AFE019802F0C9FD084B002202F0BE
:10DC50002BFE03F00BF9236933B11A6800EE100AAA
:10DC6000126A21461846904702B010BD0000D03F0E
:10DC7000704710B5044686B000211822684603F0AC
:10DC8000DEF9A37A002B14BF002303238DF80030A4
:10DC9000A38868460A221B0193FBF2F3ADF810300B
:10DCA000FFF708FE06B010BD2DE9F043054690F8D9
:10DCB0005D008FB00C460023142683425DDA06FB1C
:10DCC00003F2296E8F188A58A24207D12046FFF727
:10DCD000FFF9C30751D57B6813B94EE00133ECE778
:10DCE00095F833600DF11808324605F114014046ED
:10DCF00003F09AF9236820461B69984704300644CC
:10DD0000F6B21F2E39D87868FFF724F90146684625
:10DD1000FFF798FD236895F833701B6920469847F4
:10DD20000EAB1F44033007F8200C95F833703B44CA
:10DD30001622684603F81F2CFFF7B4FD023703884C
:10DD400028F80730236895F83370DB682046984739
:10DD5000236881461B69204698470437474402469A
:10DD60004946384603F060F900231A4631464046DA
:10DD7000FFF79EFD6C63012000E000200FB0BDE8BE
:10DD8000F0832DE9F047D4B04FF48E7304460DF1C3
:10DD90000A010DA8ADF80A30FFF7B8FD03460028C8
:10DDA00040F04482BDF83420302A00F03C8111D884
:10DDB000112A5CD004D8012A21D0102A27D035E2BC
:10DDC000142A00F0C780192A00F0D080132A40F0EE
:10DDD0002D829BE0382A00F0DA8106D8322A00F042
:10DDE0006481362A00F0BA8120E2502A00F0D18006
:10DDF000522A00F01281392A40F01882ECE194F89E
:10DE00005C209DF83C30134484F85C300EE2BDF891
:10DE10003800208705A9FFF77BFD20699DF81430A5
:10DE200084F85C3028B103680DF13D021B6821467F
:10DE30009847E288052A12D92389B3F5486F0ED88E
:10DE4000ADF816300023ADF8183005A94FF4C873AB
:10DE5000208FADF81420ADF81A30FFF72DFD94F89F
:10DE60006430002B00F0E2810022012109E14FF62D
:10DE7000FF72228784F85C0005464FF01409804643
:10DE800094F85D309D4216DA276E09FB05F6BB1942
:10DE9000B85983F8108083F81180FFF720F940B15A
:10DEA000206930B10368BA59D3F814A02146002381
:10DEB000D0470135E4E7206918B1036821465B6863
:10DEC000984700230C20194694F86420934202DB03
:10DED0000023184605E0A26E00FB03220133916087
:10DEE000F2E794F86D20934208DA216F1A01114489
:10DEF00001330873216F0A44D081F2E7002384F8CC
:10DF00007430236820469B6998478FE1E0680028B9
:10DF100000F08681FFF726F8002840F08181012378
:10DF200003228DF80F3062F306138DF80C300723AF
:10DF30008DF80D30102300218DF80E30A36D059360
:10DF40008DF8101009910A910B910691079105AB7C
:10DF500003AA68E1A16DBDF84420488A904218BF29
:10DF60001946208F1A46FFF7B7FC5FE19DF83C2069
:10DF7000002A40F05B81E06820B11C2304F13C01E1
:10DF8000FFF703F82069002800F0508103689B68C0
:10DF9000E1E0BDF83A8006464FF0140994F85D3090
:10DFA0009E4280F24381216E09FB06F3CF183A8925
:10DFB00042450CD12069002800F0388103689DF8A3
:10DFC000442000921D693A680DF1460323E1BA89A5
:10DFD000424520D19DF847009DF8462042EA0022A4
:10DFE00095B202F001023A74C5F340027A7415F05A
:10DFF0000305C85818BF0125FFF771F8A8420AD0D9
:10E000002069002800F0128103683A685E692146A1
:10E010002B46B0470AE10136C0E702460146208F91
:10E02000FFF770FC02E1BDF83A2072BBBDF840502A
:10E030000DA913460C26AB421CDA94F8647000203C
:10E04000B84214DAA26E91F810C006FB002292F8D2
:10E0500006E0F44509D1B1F80EC0B2F804E0F44589
:10E0600003D1D1F81200906001E00130E8E70133FC
:10E070000831E0E70DAB03EBC5050022A9890131AA
:10E0800089B2208FFFF72AFCD0E094F864200C209E
:10E09000934280F2CB80A16E00FB03110D8915B174
:10E0A0004D89002D4BD10133F2E7BDF83A2094F8A9
:10E0B0006C30002A36D1A66E03EB430306EB8303D4
:10E0C0000A259B6805930DAB9A8905FB0235AB4287
:10E0D00023D0002194F86D20914219DA226F94F830
:10E0E0006C0002EB011200EB400056F82070506803
:10E0F00087420BD11F7C907A874207D11089DF8934
:10E10000874201BF987C1073D88AD0810131E1E742
:10E11000DA8AADF814200A33D9E705A9208FFFF772
:10E12000DFFB83E001330C2294F864005A438342FE
:10E130000CDAA16E11440D892DB14D891DB184F801
:10E140006C300831EAE701330C32F0E7206900282F
:10E150006CD00368DB682146984767E0BDF83A1049
:10E1600084F8740040F20512914201D1E268CAB904
:10E17000BDF8401094F86D000023834256DA226FF8
:10E1800002EB0312D5898D423BD00133F5E7BDF890
:10E190003A1084F8740040F20512914246D1E268C8
:10E1A000002A43D01A0E8DF8183042F00102DBB27B
:10E1B0008DF8172043F00103032262F306138DF854
:10E1C000143007238DF8153005A91023208F8DF802
:10E1D0001630FFF77DFB29E09DF84230BDF8405036
:10E1E000022B03D12946208FFFF780FB94F86D1096
:10E1F00000238B421ADA226F02EB0312D089A84265
:10E200000CD1206990B19DF8441003680091126808
:10E210009D690DF146032146A84707E00133E8E771
:10E2200000231A468521208FFFF754FB54B0BDE828
:10E23000F08710B50446FFF773FB206F08B102F0BA
:10E24000EBFEA06E08B102F0E7FE206E08B102F00E
:10E25000E3FE002384F85D3084F8643084F86D3088
:10E2600010BD000010B5054B03600446FFF7E1FF49
:10E270002046FEF767FF204610BD00BFD0470200D2
:10E2800010B50446FFF7EEFF204602F007F92046DE
:10E2900010BD07B51288ADF80020ADF802106A462F
:10E2A00001464FF6FF700193FFF728FB03B05DF8BE
:10E2B00004FB00002DE9F04FEDB09A469DF8E831DF
:10E2C0000193A04B769E9DF8E08105461868089062
:10E2D0000F4608A800211446FFF720FB9A4B09932C
:10E2E000142200210DA802F0AAFE0A2309A9ADF804
:10E2F00034300DA801238DF840308DF83C30FFF705
:10E3000003FB2822ADF82C205022ADF82E204FF030
:10E3100000094FF4C8720BA8ADF83220ADF8309068
:10E32000FFF7D2FA4846FFF7CBFA6B7506230222B5
:10E33000AB7503232A7585F833301FB314B3144427
:10E34000B9451FDA95F8330014F8023C2A18013356
:10E350001375023014F8013C5375C0B285F83300D0
:10E36000284414F8022C2146143002F05DFE14F803
:10E37000023C95F83320134485F8333009F1010944
:10E380001634DDE724AFBAF1000F1CD0EEB14FF028
:10E39000000902364B46D14518DA16F802BC16F8C9
:10E3A000011C0BF10102FA549C1CFA18E4B25170E2
:10E3B000381931465A465C4402F036FE09F101092B
:10E3C000E3B21636E7E7534600E033463A4695F89F
:10E3D000331005F11400FFF76BFA0020FFF772FA13
:10E3E000002442F6030644450DDA779B53F82400D7
:10E3F000FEF7B2FDB04202BF95F85D30013385F8FB
:10E400005D300134EFE795F85D000338C0B285F860
:10E410005D0000EB8000800002F0F6FD002628661B
:10E42000ADF814600296B146464580F2BE81779BF6
:10E4300053F826402046FEF78DFD014617A8FFF74A
:10E4400001FA17A8FFF72EFA074617A8FFF72CFACC
:10E45000022809D17A783B7843EA0223ADF82830C4
:10E4600001238DF82A301CE03B460DF1B00E07F178
:10E47000100C18685968724603C208336345964603
:10E48000F7D17A7B3B7B43EA0223ADF828300DF1CC
:10E490002A0100232CA88DF8BD308DF8BC30FFF781
:10E4A00039FA2046FEF758FDB0F5205F204611D11D
:10E4B000FEF750FD254903F01DFC002800F0738194
:10E4C0002046FEF747FD224903F014FC002800F027
:10E4D0006A8131E2FEF740FD42F60303984240F0C4
:10E4E000358104B1043C271D3846FEF733FD194938
:10E4F00003F000FCB8B99DF8B030012262F30303C9
:10E5000062F307138DF8B03023682046DB68984724
:10E51000236807461B6920469847394682B22CA8D3
:10E52000FFF7D4F93FE13846FEF714FD0A4903F03E
:10E53000E1FB98B923682046DB6898470088FFF71D
:10E54000C1F930E1C447020080200020B846020033
:10E55000C7460200BD460200C24602003846FEF72A
:10E56000F9FCC14903F0C6FB002800F01C812046DD
:10E57000FEF7AEFD236882461B69204698472A6E47
:10E58000ADF8160009EB89014FEA810B02EB0B0392
:10E5900042F821400027029A5A601F745F741C22BF
:10E5A00039461DA802F04BFD2AF001031AF0300F86
:10E5B0008DF8743010D00123194663F307118DF8DC
:10E5C0001810194606AA63F3071163F342078DF882
:10E5D00019108DF81A70229200231AF0320FADF83C
:10E5E0001C308DF81E300BD09DF81C30E9680122DC
:10E5F00062F3030301B1022262F307138DF81C30AA
:10E600001AF00C0F10D0EB6801222BB19DF81D30D1
:10E6100062F30303022203E09DF81D3062F303035B
:10E6200062F307138DF81D309DF81E30012262F34E
:10E6300042038DF81E30236820469B6998479DF859
:10E640001E3080F0010060F300038DF81E30771C4F
:10E6500047453CDA779B53F827A05046FEF77CFCF1
:10E66000B0F5245F33D1BAF1000F01D0AAF1040A4A
:10E670000AF1040318460393FEF76CFC7B4903F090
:10E6800039FB039BA0B9DAF8003050469B689847E5
:10E690001E90DAF800305046DB689847DAF8003010
:10E6A000ADF87C00DB6850469847ADF87E000CE082
:10E6B0001846FEF74FFC6E4903F01CFB28B9DAF848
:10E6C000003050469B68984720900137C0E71422DD
:10E6D000002112A802F0B3FC0DF1160A0AAB129346
:10E6E00007AB1393BAF80030ADF8503023682046DA
:10E6F0009B6898472B6EADF8540000275B440833A5
:10E7000012AA1DA938461697FFF7F4F8BAF8003098
:10E71000BBB12CABBAF800200393974208DA226809
:10E720003946526920469047039BD8550137F1E797
:10E730002B6E9B4452462CAB0021BBF80800FFF720
:10E74000A8FD09F101095FFA89F92CE02046FEF7DE
:10E7500003FCB0F5245F26D104B1043C271D3846E4
:10E76000FEF7F8FB414903F0C5FAE0B13846FEF781
:10E77000F1FB404903F0BEFAA8B13846FEF7EAFBC8
:10E780003D4903F0B7FA70B13846FEF7E3FB38496C
:10E7900003F0B0FA38B1D6E02CAB52460021BDF8F8
:10E7A0001400FFF776FD01363EE6019B23B3A3F18B
:10E7B00002085FFA88F6002442F60307B442B04626
:10E7C0001CDA799B53F824804046FEF7C5FBB0F570
:10E7D000205F05D195F86430013385F8643009E095
:10E7E0004046FEF7B9FBB84202BF95F86D300133E1
:10E7F00085F86D300134E1E7DDF8048095F86400B8
:10E8000000EB4000800002F0FFFBA86695F86D0069
:10E81000000102F0F9FBDDF8E4912867002609EB1E
:10E8200088083746B246C14579D059F8044B20468E
:10E83000FEF790FB01462CA8FFF704F82CA8FFF781
:10E8400031F883462CA8FFF72FF8022816D19BF841
:10E8500001209BF8003043EA0223ADF85C3001232D
:10E860008DF85E3029E000BFCC4602002C48020043
:10E8700031480200364802003B4802005B460DF179
:10E88000740E0BF1100C18685968724603C20833F5
:10E8900063459646F7D19BF80D209BF80C3043EA70
:10E8A0000223ADF85C300DF15E0100231DA88DF848
:10E8B00081308DF88030FFF72DF82046FEF74CFBB5
:10E8C000B0F5205F10D1AA6E07EB47018B00D0187E
:10E8D00042F82140179A4260AA6E13440137002281
:10E8E0009A60FFB2A2469EE72046FEF735FB42F64D
:10E8F0000303984297D1296F3301CA1804B1043C2D
:10E90000CC50C2F804A0179991602A6F1A440021D4
:10E9100011732A6F13440136D981F6B283E7E86890
:10E9200018B1FEF71FFB002865D12B6828469B69AC
:10E9300098476DB0BDE8F08F05AA0AA90120FEF73F
:10E94000D7FF02942FE723682046DB68984712AF71
:10E9500014220021ADF81C001DA802F070FB4FF03E
:10E96000010A00233B806AF34203BB702368204600
:10E97000DB689847BDF81C10BB78EA6880B2401A83
:10E9800018BF012060F30003BB703B782AB16AF323
:10E990000303022262F3071303E06AF303036AF33B
:10E9A00007133B700AAB1E971D932368ADF87C10CC
:10E9B000DB682046984700270DF11C0AADF880005F
:10E9C00005AA1DA938462197FEF796FFBAF8003030
:10E9D000002B3FF4E8AE0DF1B00BBAF800309F42C7
:10E9E000BFF6DAAE236839461B69204698470BF814
:10E9F00007000137F1E71C23002205F13C01E8681C
:10EA0000FEF7D2FA91E700BF2DE9F04F87B0044638
:10EA10000D46002601274FF014090DF1060894F861
:10EA20005D309E4252DA09FB06F3226E02EB030AC6
:10EA3000D358AB4248D1636B9D4204D12368294629
:10EA40005B6A204698472B6828461B6998472B68C5
:10EA5000ADF80600DB68BAF808B028469847424689
:10EA6000034600215846FFF714FC1022002102A89B
:10EA700002F0E5FABAF80830ADF808309AF810302C
:10EA8000CDF8108073B194F85C3053B1013B84F839
:10EA90005C3002A90123208F8DF80A30FEF730FF89
:10EAA00000E01F469AF8113073B194F85C3053B10E
:10EAB000013B84F85C3002A90223208F8DF80A30D4
:10EAC000FEF71EFF00E01F460136A8E7384607B0F4
:10EAD000BDE8F08F10B50446FEF73CFB0F4B2360FA
:10EAE00000214FF6FF7304F13C0084F8331061639A
:10EAF000238784F85C1084F85D10216684F8641024
:10EB0000A16684F86C1084F86D10216784F8741085
:10EB1000A0651C2202F093FA204610BDD0470200E7
:10EB200008B5074B1860074B1B681844064B186064
:10EB3000064B02221A7000F0F9FF054B186008BD61
:10EB4000D024002084200020DC240020D4240020B5
:10EB5000D82400202DE9F04F85B01F46BDF938308C
:10EB6000BDF83CA015469A1A002AB8BF524200923E
:10EB70007A1A002AB8BF524201920C46009A0199B3
:10EB80008A42814605DD3A461F46134622462C46F8
:10EB90001546BC4205DD2A461D46134622463C4624
:10EBA00017465A1B002AC4EB0708B8BF52421FFA87
:10EBB00088F8039202260FFA88F292FBF6F64FF6D7
:10EBC000FF729D42B8BF0122B6B20292BC421FDC66
:10EBD000019A009B9342D9F80030C8BF2246D3F86F
:10EBE00010B0C8BF29465346DCBF2A4621464846D6
:10EBF000D847039BF61AB3B29EB2320405D5029AE7
:10EC000008EB030615442DB2B6B2013424B2DDE799
:10EC100005B0BDE8F08F10B40468A468A4465DF8A0
:10EC2000044B604730B40468BDF808500295246B6B
:10EC3000A44630BC604730B40468BDF80850029563
:10EC4000646BA44630BC604770B40468BDF90C50D6
:10EC5000BDF8106004960395A46BA44670BC604791
:10EC600070472DE9F3411C460368BDF82080DB683E
:10EC700005461646013C34440F4624B298472B689B
:10EC8000CDF8048000941C6A28463B46324639463B
:10EC9000A0472B685B6A284602B0BDE8F0411847E0
:10ECA0002DE9F3411D460368BDF82080DB6804466A
:10ECB00017460E4698478DE8800122686B1E334444
:10ECC000156A20461BB23A463146A84723685B6A5C
:10ECD000204602B0BDE8F04118472DE9F3471E4633
:10ECE0000368BDF92880DB68BDF82C900C4605460A
:10ECF000174698472644B4422A680BDACDF80090AC
:10ED0000D2F818A0214643463A4628460134D04757
:10ED100024B2F0E7536A284602B0BDE8F04718472E
:10ED200013B5B0F90E200468019100920022B0F9E9
:10ED30000C30A46B1146A04702B010BD2DE9F7437B
:10ED40009942904607460E461C46BDF92850BDF82C
:10ED50002C9002680BD1A845C2BF4346A8461D4669
:10ED60006B1CCDF82890C8EB0303146B0CE0A8458E
:10ED700013D19942C4BF0B462646CDF82890C8BF90
:10ED80001C46631C546B9B1B1BB2424631463846E3
:10ED9000A44603B0BDE8F0436047D36898473B689A
:10EDA0008DE8200238461D6A424623463146A84770
:10EDB0003B685B6A384603B0BDE8F04318472DE96D
:10EDC000F3471E460368BDF82C80DB68BDF9289028
:10EDD00004460D46174698472368CDF80080D3F8BF
:10EDE0001CA03A46334629462046D0472368CDF832
:10EDF000008009F1FF323A44D3F81CA0294633467B
:10EE0000204612B2D0472368CDF80080D3F818A06E
:10EE10003A464B4629462046D0472368CDF8008025
:10EE2000711E294420469D693A464B4609B2A847BF
:10EE300023685B6A204602B0BDE8F0471847704778
:10EE400001F00301012941760389428904D0032995
:10EE500002D08381C28170478281C38170470000E4
:10EE600030B501810024094D42818181C2814FF674
:10EE7000FF71012244600560447604824482027678
:10EE8000C18281828276C476C46130BD4848020066
:10EE90002DE9F04F91B09146C26904911E46BDF82C
:10EEA000683002930446BDF86CA09DF87050002AAB
:10EEB00040F0B580B0F90C308B4240F34B81B0F993
:10EEC0000E304B4540F34681062313FB0513002B00
:10EED00040F3408109EBC503002B40F33B81C37E27
:10EEE0001BB9AF2E84BF0136F6B223682046DB681B
:10EEF000984705230B931FFA85F8002307930FFA11
:10EF000088F305939DF91C309449052212FB0632C3
:10EF10001FFA89F78A5C0692BDF8102003929AB214
:10EF20000A92039A089703FB082307F1080292B29A
:10EF30001BB20D9209970C93069BD90714D5012D8E
:10EF400007D10A9B039A99182368D3F810B0029B43
:10EF500016E0029A23680192059A0092D3F814B041
:10EF60001346BDF924201AE0029B53451AD0012D07
:10EF70000BD10A9B039A99182368D3F810B0534613
:10EF80003AB209B22046D8470CE0059A23680092AD
:10EF9000CDF804A0D3F814B01346BDF920200C9985
:10EFA0002046D847069B5B080693099B43449BB2C7
:10EFB0000993089B43449BB2089301370D9BBFB252
:10EFC000BB42B9D1079B0133DBB207930B9B013BDB
:10EFD00013F0FF030B9395D1029B534500F0B380D0
:10EFE000012D22680AD10399CDF800A00531956959
:10EFF00008234A4609B22046A847A4E0039BCDF85F
:10F0000004A008EB88010B4419464FEAC80300939B
:10F0100056692B464A4609B22046B04793E0137A18
:10F02000F61A5368F6B203EBC60613680B93B3786F
:10F0300096F806A00793F3780C93012D7379089343
:10F040008ABF4FFA8AF300239BB2B6F800B08EBF96
:10F0500005931E460593036888BF9DF92060DB6811
:10F0600088BFB6B29847ABB20693BDF81030049390
:10F07000BDF8183016FB03F6049B1E44B3B20A9386
:10F080001FFA89F30026099343FA8AF3B0460396E0
:10F090000F930C9BF2B29A4255D2059BBDF8181003
:10F0A000DDF82890F31813FB01F309990B449BB288
:10F0B0000D930F9B13444FF0000A0E9307995FFACC
:10F0C0008AF208EB02039142DBB236D95A0707D124
:10F0D0000B9A0BF1010312F80B2003921FFA83FB2A
:10F0E000039B1B061ED5012D0FD19DF82020049BEC
:10F0F00043FA82F12368BDF938201B6951441F4649
:10F1000009B2029B2046B8470CE00299226801919F
:10F11000009552692B4617460FFA89F1BDF9342044
:10F120002046B847039B5F00FBB20393069B9944BC
:10F130000AF1010A1FFA89F9C0E7079B98445FFAB0
:10F1400088F80136A5E723685B6A204611B0BDE860
:10F15000F04F184711B0BDE8F08F00BF9048020093
:10F160007FB5C26904460B46002A2DD10A2905D174
:10F170000282438A027E03EBC2032EE00D2965D092
:10F18000817E007E69B1B4F91050062111FB005157
:10F19000B4F90C50A942C1BF2282628A02EBC002BC
:10F1A00062820290E08A0190A08AB4F91220009055
:10F1B000B4F910102046FFF76BFE237E228A03EB82
:10F1C000430302EB430340E00A2908D100230382F2
:10F1D000017E927A438A01FB0233638236E00D2975
:10F1E00034D0157AA94231D3517A99422ED351683D
:10F1F0005D1B01EBC505A97811B3E87800B3A67EC5
:10F20000207E8EB195F905603144B4F9106000FBA1
:10F210000161B4F90C60B14206DD00212182927ACD
:10F22000618A02FB001262820290E08A0190A08A49
:10F230000090B4F91220B4F910102046FFF728FE10
:10F240002979227E238A01FB02332382012004B024
:10F2500070BD018242827047002908BF01210176FA
:10F260007047C182818270478182C2827047B0F943
:10F270000C007047B0F90E0070470000F8B50D1E85
:10F28000074614461E463ADBFFF7F1FF854236DAA1
:10F29000002C34DB3846FFF7EDFF84422FDA012ED5
:10F2A0000CD1082194FBF1F105EB8115144904F010
:10F2B00007044B5DA6401E434E55F8BD0ED20821F3
:10F2C0000F4894FBF1F105EB811504F007040121CF
:10F2D000435D01FA04F423EA04040EE0022E0ED189
:10F2E0000821074894FBF1F105EB811504F00704B0
:10F2F0000121435D01FA04F45C404455F8BDF8BDBA
:10F30000E0240020F0B50029BDF81440C0F2908040
:10F31000B0F908508D4240F38B80002AB8BF9B188B
:10F320004089BCBF1BB20022D51806B2B542C4BF8B
:10F33000831A1BB2002B7BDDD2B2D0083D4D01EB0E
:10F34000801112F00702DBB205EB010027D0C2F1F9
:10F350000802D2B2384E9342B65C0CD2C3EB020E16
:10F36000FF2747FA0EF7012C06EA070605D008D357
:10F37000022C0CD0F0BD012C02D16F5C3E4308E0A2
:10F3800003D26F5C27EA060603E0022C04D16F5C0F
:10F390007E4093426E544BD39B1ADBB24030072B16
:10F3A00026D9022C00F140020CD1194612F8404C2B
:10F3B0000839C9B2E443072902F8404C02F140027F
:10F3C000F4D825E0012C0CBFFF250025194608398B
:10F3D000C9B2072902F8405C02F14002F7D8A3F154
:10F3E0000802C2F3C402013200EB821003F00703EB
:10F3F000F3B1124A012CD35C03D005D3022C17D1F0
:10F4000012E00278134311E0027822EA03030DE0D0
:10F41000A3F10802C2F3C402013213F0070300EBA8
:10F42000821005D0054AD35C027853400370F0BDCA
:10F43000F0BD00BFE02400209020002088200020A4
:10F4400070B5002ABDF8105045DBB0F90A4094426F
:10F4500041DD0029B8BF5B180089BCBF1BB2002189
:10F46000CC1806B2B442C4BF431A1BB2002B32DD23
:10F470000124082092FBF0F002F0070201EB80115A
:10F48000154804FA02F2A5420844D2B203D00CD3C4
:10F49000022D16D070BD013B1BB25D1C1BD010F8B5
:10F4A000011B114300F8011CF5E7D243D2B2013B26
:10F4B0001BB25C1C0FD010F8011B114000F8011C9E
:10F4C000F5E7013B1BB2591C05D010F8011B514058
:10F4D00000F8011CF5E770BDE0240020F8B50446F3
:10F4E0000F461646402180221D46FFF7B9FC084B07
:10F4F0002360084B63629DF9183084F8207084F80B
:10F50000216084F8225084F823302046F8BD00BFE3
:10F51000984D0200FC2300207FB54FF0004301937B
:10F520000025022304468DF80830039504AB0E46EF
:10F53000406A13E90E00FDF799FA94F922000121BF
:10F5400000F052FB294694F9200000F04DFB2946BB
:10F5500094F9220000F048FB3146606AFDF793FA07
:10F5600094F92200012100F03FFB606A04B0BDE87D
:10F570007040FDF787BA002914BFA721A621FFF725
:10F58000CBBF00002DE9F84300210646FFF7C4FF7A
:10F5900010213046FFF7C0FF40213046FFF7BCFF87
:10F5A000DFF85C800027A7F15001C9B23046FFF7B1
:10F5B000B3FF00213046FFF7AFFFBDB21221304646
:10F5C000AC01FFF7A9FF0135AD01A4B2ADB24FF018
:10F5D000000904EB09039BB2706A18F8031009F1E3
:10F5E0000109FDF750FAB9F1080FF2D10834A4B2BD
:10F5F000A542ECD10137102FD5D1BDE8F88300BF6B
:10F60000E02400204FF480620021014801F017BD82
:10F61000E024002010B5044690F92300431C07D0D5
:10F62000012100F0BFFA012194F9230000F0DCFA77
:10F6300094F92000012100F0B5FA012194F922008B
:10F6400000F0B0FA606AFDF7FBF994F9210001219E
:10F6500000F0A8FA012194F9210000F0C5FA0A206F
:10F6600000F07CFA002194F9210000F0BDFA0A2094
:10F6700000F074FA94F92100012100F0B5FA204657
:10F68000AE21FFF749FF2046D521FFF745FF204671
:10F690005021FFF741FF2046D321FFF73DFF2046D1
:10F6A0000021FFF739FF20464021FFF735FF2046B4
:10F6B000AD21FFF731FF20468B21FFF72DFF2046BC
:10F6C0003221FFF729FF2046A121FFF725FF204621
:10F6D000C821FFF721FF2046DA21FFF71DFF204652
:10F6E0001221FFF719FF20468121FFF715FF204661
:10F6F000CF21FFF711FF2046D921FFF70DFF20464C
:10F700002821FFF709FF2046DB21FFF705FF2046F0
:10F710003521FFF701FF2046A421FFF7FDFE20461B
:10F72000A621FFF7F9FE2046AF21FFF7F5FE2046A0
:10F73000BDE81040FFF766BF002202704270027100
:10F740004FF0FF328262C2620163704710B5044617
:10F75000206B00F05BFA0028FAD1206B00F056FA1B
:10F760000028FAD010BD10B50446206B00F04EFA08
:10F770000028FAD110BD000070B50D489DF810505A
:10F7800016461C46FDF7A6FA31460948FDF7C2F9B0
:10F79000013D661E2C44A64205D016F8011F044800
:10F7A000FDF7B8F9F7E70248BDE87040FDF7F9BA90
:10F7B00010240020F8B516489DF8185017461C462E
:10F7C0000E46FDF787FA39461148FDF7A3F90021E7
:10F7D0000F48FDF789FA9DF81C300D4883F00103AE
:10F7E0002A463146FDF724FA0948FDF790F9A84268
:10F7F00003DA012000F0B2F9F6E72544AC4205D067
:10F800000348FDF799F904F8010BF7E7F8BD00BFCD
:10F81000102400202DE9F74F04468F48FDF7BEF96C
:10F820000021206B00F0BEF900262046E51D4FF0B8
:10F83000020AFFF798FF2B463246442120460196E4
:10F84000CDF800A0FFF7B6FF2046FFF77FFFE37972
:10F850003C2B40F0FC8001272046E671FFF783FF38
:10F860003A4644212B4620460097FFF785FF204665
:10F87000FFF76CFF0F23E3712046FFF774FF0D22A3
:10F8800044212B4620460097FFF776FF2046FFF7DE
:10F890005DFF202323726372A3724FF003034FF0C6
:10F8A00008084FF00409E372142384F80780637397
:10F8B0002046267384F80E90FFF755FF0A22442154
:10F8C0002B46CDF800802046FFF756FF2046FFF775
:10F8D0003DFF3023E371402323722046FFF743FFAF
:10F8E0002B460B224421CDF800A02046FFF744FF11
:10F8F0002046FFF72BFF84F8078084F8088084F8FF
:10F90000098084F80A802046FFF72DFF0722442152
:10F910002B462046CDF80090FFF72EFF2046FFF73C
:10F9200015FF1D23237220464FF0050BE67184F866
:10F930000990A672E672FFF716FF44212B460922B2
:10F940002046CDF800B0FFF717FF2046FFF7FEFE78
:10F950004FF0510A49234A2223726272A372204651
:10F9600084F807A0FFF7FFFE42462B4644212046BD
:10F97000CDF80090FFF700FF2046FFF7E7FE204696
:10F98000E671FFF7F0FE0B2244212B46204600973C
:10F99000FFF7F2FE2046FFF7D9FE332363722046BD
:10F9A00084F807B084F808A0FFF7DDFE03230C22DB
:10F9B0004421009320462B46FFF7DEFE2046FFF74A
:10F9C000C5FE1023E3712046FFF7CDFE2B4609222A
:10F9D000442120460097FFF7CFFE2046FFF7B6FEF2
:10F9E0004FF00B080A2000F0B9F82046FFF7BBFEE5
:10F9F0002B4601224421204601960097FFF7DAFEAC
:10FA00002046FFF7A3FEE37903F0040303F0FF09A8
:10FA10004BB1B8F10108E5D11049114800F030FAB6
:10FA20004FF0FF3015E02046FFF79DFE02230093C4
:10FA300009222B4644212046CDF80490FFF7BAFE58
:10FA40002046FFF783FE207AC0F3400001E06FF00C
:10FA5000010003B0BDE8F08F10240020624F0200C7
:10FA6000E42800202DE9F04385B004460025022655
:10FA7000FFF779FEE31D01224421009620460195FF
:10FA8000FFF798FE204694F80890FFF75FFE2046A7
:10FA9000FFF769FE0123032244210093204604F16D
:10FAA00009030195FFF786FE204694F80980FFF7C9
:10FAB0004DFE2046FFF757FE0323324600934421B4
:10FAC00004F10A0320460195FFF774FE2046A77A49
:10FAD000E67AFFF73BFE284669F3070068F30F203C
:10FAE00067F3174066F31F6005B0BDE8F0830000C0
:10FAF0000649074A074B9B1A03DD043BC858D05000
:10FB0000FBDC00F0CFF8FCF7CDFC00003053020026
:10FB10008020002058210020FEE7FEE7FEE7FEE7F8
:10FB2000FEE7FEE7FEE7FEE7FEE7FEE7094B1968A2
:10FB3000094B30B5D3F804050A060B0A02434FF40B
:10FB40007A71A2FB014501FB0355E00B40EA4540F9
:10FB500030BD00BFE02800200010014038B5044649
:10FB600048B1FFF7E3FF054600F01AF8FFF7DEFFA4
:10FB7000401B8442F8D838BD074B0022C3F804214B
:10FB800082B0D3F80431054A0193019B1368013315
:10FB9000DBB2136002B0704700100140E028002083
:10FBA000704700001F281BD80E4B53F82030032944
:10FBB00016D8DFE801F0020E060A03F5E073002113
:10FBC0000AE003F5E0730C2106E003F5E07304217D
:10FBD00002E003F5E07303214FF0A04242F8231046
:10FBE000704700BF6C4F02001F280CD8064B53F81B
:10FBF000200001234FF0A042834011B9C2F80C3518
:10FC00007047C2F8083570476C4F02001F289FBF2D
:10FC10004FF0A043054AD3F8103552F820009ABFA0
:10FC200023FA00F000F00100002070476C4F020042
:10FC30000C4B1B78062B10D10B4B1B681A070CD1F1
:10FC40000A4B186800F0F003302B08D000F0E000F9
:10FC5000A0F14003584258417047002070470120EE
:10FC6000704700BFE00F00F0E40F00F0E80F00F075
:10FC7000094B1B78062B0CD1084B1B681A0708D1BF
:10FC8000074B186800F0F000A0F1300358425841CB
:10FC900070470020704700BFE00F00F0E40F00F055
:10FCA000E80F00F008B5FFF7E3FF10B14B4B4C4AEB
:10FCB0001A60FFF7BDFF28B14A4B4B4A1B68C3F3DC
:10FCC00042331360FFF7D4FF20B1484AD36823F0D2
:10FCD0008073D360FFF7ACFF40B14FF08043002248
:10FCE000C3F80C21C3F81021C3F83825FFF7C0FF73
:10FCF00010B13F4B03221A60FFF7BAFF40B13D4BF2
:10FD000005221A6001229A6700229A603F225A60F7
:10FD1000394B1B78062B09D1384B1B681B0705D1C3
:10FD2000374B1B6803F0F003502B0ED0354AD2F846
:10FD3000883043F47003C2F88830BFF34F8FBFF3AD
:10FD40006F8F314B314A1A6008BD4FF08052304BF3
:10FD5000D2F80414C3F82015D2F80814C3F82415F7
:10FD6000D2F80C14C3F82815D2F81014C3F82C15C7
:10FD7000D2F81414C3F83015D2F81814C3F8341597
:10FD8000D2F81C14C3F84015D2F82014C3F8441557
:10FD9000D2F82414C3F84815D2F82814C3F84C1527
:10FDA000D2F82C14C3F85015D2F83014C3F85415F7
:10FDB000D2F83414C3F86015D2F83814C3F86415B7
:10FDC000D2F83C14C3F86815D2F84014C3F86C1587
:10FDD000D2F84424C3F87025A8E700BF74C00740D8
:10FDE0000DF0ADBA440200103C050040F0ED00E01B
:10FDF000A005004010560040E00F00F0E40F00F0B6
:10FE0000E80F00F000ED00E0982000200090D00303
:10FE100000C000402DE9F04106460D4601EB020806
:10FE20000C464445A4EB050707D0336814F8011BC2
:10FE30001B68304698470028F3D13846BDE8F0816A
:10FE400070B505460C46084649B101F065FF2B68C0
:10FE50000246214628465B68BDE87040184770BDE1
:10FE600008B5FFF7EDFF08BD03681B6818470000E1
:10FE700008B50249FFF7E4FF08BD00BFEC4F0200E0
:10FE800038B50546FFF7DCFF04462846FFF7F0FFCC
:10FE9000204438BD38B50546FFF7E6FF044628463E
:10FEA000FFF7E6FF204438BDF0B58BB000238DF896
:10FEB0002430012A98BF0A220DF12305B1FBF2F488
:10FEC00002FB1416F3B2092E94BF30333733DBB282
:10FED0002F46214605F80139002CEFD13946FFF7AE
:10FEE000AFFF0BB0F0BD10B42AB903685DF8044B46
:10FEF0001B68C9B21847D2B25DF8044BFFF7D4BFF4
:10FF000038B50546FFF7EFFF04462846FFF7B0FF78
:10FF1000204438BD2DE9F04107460E4615462AB962
:10FF20000368C9B21B68BDE8F04118470A2A02D12C
:10FF3000002901DA04E0D2B2BDE8F041FFF7B4BF16
:10FF40002D21FFF791FF2A46044671423846FFF7FC
:10FF5000ABFF2044BDE8F0812DE9F843804657EC23
:10FF6000106B0D4600F0BAFA08B9424910E047ECB0
:10FF7000106B00F0B3FA012801D13F4908E04FF0BF
:10FF800060423E4B3046394600F01EFF28B13C49E6
:10FF90004046FFF755FFBDE8F8834FF06042394B0C
:10FFA0003046394600F0F2FE0028F0D1002200234E
:10FFB0003046394600F0EAFE40B12D214046FFF7B9
:10FFC00053FF07F1004304461F4600E004462E4954
:10FFD0004FF0000900205FFA89F39D4206D9002204
:10FFE0002A4B00F08BFD09F10109F4E732463B464C
:10FFF00000F0A8FA0F46064600F018FF0A22014654
:020000022000DC
:1000000081464046FFF750FF04447DB3484600F068
:10001000D5FB02460B463046394600F091FA0646BB
:100020000F4640461A49FFF70BFF0444174B0022C6
:100030003046394600F038FC0F46064600F0CEFE4A
:100040000A22014681464046FFF764FF04444846C1
:1000500000F0C4FB02460B463046394600F070FA09
:10006000013D15F0FF0506460F46DFD12046BDE8ED
:10007000F88300BFEF4F0200F34F0200FFFFEF4194
:10008000F74F0200FFFFEFC10000E03F00002440F7
:10009000FB4F020038B5C9B20546FFF75DFF0446C5
:1000A0002846FFF7E5FE204438BD10B5402204463F
:1000B000002100F0C4FF002323646364204610BDC8
:1000C000026C10B5531C446C03F03F039C421CBFF0
:1000D0008154036410BD0023036443647047436C80
:1000E000026C93421FBFC25C013303F03F034364C1
:1000F00014BF10464FF0FF307047036C406C181A65
:1001000048BF40307047436C026C934214BFC05CE0
:100110004FF0FF307047036C406C013303F03F0336
:100120001B1A584258417047012070470368132238
:10013000DB69184770470369C3F81C15D3F81C2105
:10014000002AFBD00022C3F81C21012070470000C8
:1001500090F85C305AB2520910B4012120320F4C91
:1001600003F01F0301FA03F344F8223003695DF83A
:10017000044B0422C3F8082300225960D960C3F855
:1001800000254FF0FF32C3F80C251430C3F81425B6
:10019000C3F80825C3F81025FFF79DBF00E100E074
:1001A0001430FFF7AABF1430FFF7ADBF1430FFF7CC
:1001B00096BF0000026990F85E3030B5C2F80C3589
:1001C00090F85D30C2F8143590F86130012B01BF12
:1001D00090F85F40C2F8104590F86040C2F80845BA
:1001E00018BF0023B1F5966FC2F86C352ED9B1F562
:1001F000166F2ED9B1F5965F2ED9B1F5165F2DD9B0
:10020000B1F5615F2CD9B1F5964F2BD9B1F5E14F1E
:100210002AD9B1F5164F29D9B1F5614F29D9B1F5D0
:10022000963F29D9B1F5E13F28D9B1F5613F28D9E9
:10023000344B994228D9B1F5E12F28D9B1F5612F76
:100240008CBF4FF080534FF0706322E04FF49E2339
:100250001FE04FF41D231CE02B4B1AE02B4B18E042
:100260002B4B16E02B4B14E02B4B12E04FF41D03ED
:100270000FE04FF46B030CE0284B0AE04FF0EB73F8
:1002800007E04FF06C7304E04FF0806301E04FF043
:10029000E863C2F8243500210423C2F80035C2F80F
:1002A0000811C2F81C11012111609160C2F80433D9
:1002B00090F85C2053B2D2B202F01F055C09A9404D
:1002C0006034174D002B45F8241006DA154B02F068
:1002D0000F02134460221A7606E003F1604303F52F
:1002E0006143602283F8002390F85C3001215AB208
:1002F00003F01F0301FA03F35209094941F82230C0
:1003000030BD00BF90D0030000B0130000502700A4
:1003100000F03A0000A04E0000C0750000903A01C5
:1003200000E100E0FCEC00E02DE9F0411E464FF456
:100330007A73002583600E4B4560044640F8143BF9
:1003400017468846FFF7B1FE0A4AC4F8108052F8F3
:10035000263084F85D309DF8183084F85C7052F8CF
:10036000233084F85E3084F861502046BDE8F08187
:10037000085002006C4F02000369D3F8082110B541
:1003800004464AB1D3F818151430C9B2FFF798FEE5
:1003900023690022C3F8082110BD00000148FFF7BF
:1003A000EBBF00BFE428002007B51823009302220A
:1003B000172303490348FFF7B7FF03B05DF804FBB9
:1003C00000200040E428002010B50446006800F03A
:1003D00023FE204610BD10B50446006808B100F0A9
:1003E0001BFE00232360A360636010BD38B5044684
:1003F0000D460068013101F065FC10B184E8210070
:10040000012038BD036810B5044613B143688B4220
:1004100007D22046FFF7EAFF20B1A3680BB9226894
:100420001370012010BD70B50E46114604461546E6
:10043000FFF7E8FF18B92046FFF7CDFF04E0A560FD
:100440003146206801F060FC204670BD38B50023BD
:1004500004460360436083600D4639B1084601F0ED
:100460005BFC294602462046FFF7DDFF204638BDEB
:10047000FEE7704708B500F013F8FFF7FAFF012018
:10048000FFF76CFBFCF72CFA034CFCF7E1F8002CAF
:10049000FBD0AFF30080F8E70000000000F0BCBD27
:1004A0000D4BE02283F811234FF40032C3F8802172
:1004B0001A604FF080430122C3F818259A6003F5B3
:1004C00088330021C3F808150221C3F80413C3F8C8
:1004D00044131A60704700BF00E100E053EC102B9A
:1004E00033F0004110B408D01148A3F580148442C1
:1004F00008D804205DF8044B70471AB902205DF853
:10050000044B704703F1FF43094803F5E0038342BE
:10051000EFD9B1F5801F01D20320EBE7054B9942DB
:1005200001D00020E6E7B2FA82F04009E2E700BF1E
:10053000FFFFDF7F0000F07F81F0004102E000BF9D
:1005400083F0004330B54FEA41044FEA430594EA93
:10055000050F08BF90EA020F1FBF54EA000C55EACE
:10056000020C7FEA645C7FEA655C00F0E2804FEA9F
:100570005454D4EB5555B8BF6D420CDD2C4480EA81
:10058000020281EA030382EA000083EA010180EAB1
:10059000020281EA0303362D88BF30BD11F0004FFF
:1005A0004FEA01314FF4801C4CEA113102D0404235
:1005B00061EB410113F0004F4FEA03334CEA133370
:1005C00002D0524263EB430394EA050F00F0A78088
:1005D000A4F10104D5F1200E0DDB02FA0EFC22FA83
:1005E00005F2801841F1000103FA0EF2801843FA77
:1005F00005F359410EE0A5F120050EF1200E012A68
:1006000003FA0EFC28BF4CF0020C43FA05F3C018A5
:1006100051EBE37101F0004507D54FF0000EDCF11E
:10062000000C7EEB00006EEB0101B1F5801F1BD3C7
:10063000B1F5001F0CD349085FEA30004FEA3C0CCB
:1006400004F101044FEA445212F5800F80F09A80C1
:10065000BCF1004F08BF5FEA500C50F1000041EBC5
:10066000045141EA050130BD5FEA4C0C404141EBC9
:10067000010111F4801FA4F10104E9D191F0000FF0
:1006800004BF01460020B1FA81F308BF2033A3F173
:100690000B03B3F120020CDA0C3208DD02F1140C6A
:1006A000C2F10C0201FA0CF021FA02F10CE002F1A5
:1006B0001402D8BFC2F1200C01FA02F120FA0CFC9E
:1006C000DCBF41EA0C019040E41AA2BF01EB0451E7
:1006D000294330BD6FEA04041F3C1CDA0C340EDCE5
:1006E00004F11404C4F1200220FA04F001FA02F328
:1006F00040EA030021FA04F345EA030130BDC4F1E6
:100700000C04C4F1200220FA02F001FA04F340EADA
:100710000300294630BD21FA04F0294630BD94F08B
:10072000000F83F4801306BF81F480110134013D72
:100730004EE77FEA645C18BF7FEA655C29D094EAE3
:10074000050F08BF90EA020F05D054EA000C04BF61
:100750001946104630BD91EA030F1EBF002100204C
:1007600030BD5FEA545C05D14000494128BF41F0EB
:10077000004130BD14F580043CBF01F5801130BD4F
:1007800001F0004545F0FE4141F470014FF00000DA
:1007900030BD7FEA645C1ABF194610467FEA655C8B
:1007A0001CBF0B46024650EA013406BF52EA03352D
:1007B00091EA030F41F4002130BD00BF90F0000F1B
:1007C00004BF0021704730B54FF4806404F1320457
:1007D0004FF000054FF0000150E700BF90F0000F10
:1007E00004BF0021704730B54FF4806404F1320437
:1007F00010F0004548BF40424FF000013EE700BF07
:1008000042004FEAE2014FEA31014FEA02701FBF96
:1008100012F07F4393F07F4F81F06051704792F068
:10082000000F14BF93F07F4F704730B54FF46074E2
:1008300001F0004521F0004120E700BF50EA01022D
:1008400008BF704730B54FF000050AE050EA0102DA
:1008500008BF704730B511F0004502D5404261EB4A
:1008600041014FF4806404F132045FEA915C3FF48B
:10087000DCAE4FF003025FEADC0C18BF03325FEA24
:10088000DC0C18BF033202EBDC02C2F1200300FAD9
:1008900003FC20FA02F001FA03FE40EA0E0021FAFE
:1008A00002F11444C1E600BF70B54FF0FF0C4CF4E8
:1008B000E06C1CEA11541DBF1CEA135594EA0C0F9E
:1008C00095EA0C0F00F0DEF82C4481EA030621EAD9
:1008D0004C5123EA4C5350EA013518BF52EA033514
:1008E00041F4801143F4801338D0A0FB02CE4FF0C6
:1008F0000005E1FB02E506F00042E0FB03E54FF0F6
:100900000006E1FB03569CF0000F18BF4EF0010EED
:10091000A4F1FF04B6F5007F64F5407404D25FEAE9
:100920004E0E6D4146EB060642EAC62141EA55519C
:100930004FEAC52040EA5E504FEACE2EB4F1FD0CDE
:1009400088BFBCF5E06F1ED8BEF1004F08BF5FEA5C
:10095000500E50F1000041EB045170BD06F000460E
:1009600046EA010140EA020081EA0301B4EB5C04BB
:10097000C2BFD4EB0C0541EA045170BD41F48011B3
:100980004FF0000E013C00F3AB8014F1360FDEBFD8
:10099000002001F0004170BDC4F10004203C35DAB4
:1009A0000C341BDC04F11404C4F1200500FA05F337
:1009B00020FA04F001FA05F240EA020001F00042D8
:1009C00021F0004110EBD37021FA04F642EB06014E
:1009D0005EEA430E08BF20EAD37070BDC4F10C0478
:1009E000C4F1200500FA04F320FA05F001FA04F23C
:1009F00040EA020001F0004110EBD37041F1000128
:100A00005EEA430E08BF20EAD37070BDC4F1200532
:100A100000FA05F24EEA020E20FA04F301FA05F29A
:100A200043EA020321FA04F001F0004121FA04F242
:100A300020EA020000EBD3705EEA430E08BF20EA12
:100A4000D37070BD94F0000F0FD101F0004640004C
:100A500041EB010111F4801F08BF013CF7D041EACE
:100A6000060195F0000F18BF704703F000465200D2
:100A700043EB030313F4801F08BF013DF7D043EAA3
:100A80000603704794EA0C0F0CEA135518BF95EA59
:100A90000C0F0CD050EA410618BF52EA4306D1D1E0
:100AA00081EA030101F000414FF0000070BD50EAFF
:100AB000410606BF1046194652EA430619D094EA89
:100AC0000C0F02D150EA013613D195EA0C0F05D173
:100AD00052EA03361CBF104619460AD181EA0301C7
:100AE00001F0004141F0FE4141F470014FF000007F
:100AF00070BD41F0FE4141F4780170BD70B54FF01A
:100B0000FF0C4CF4E06C1CEA11541DBF1CEA135599
:100B100094EA0C0F95EA0C0F00F0A7F8A4EB05047B
:100B200081EA030E52EA03354FEA013100F0888072
:100B30004FEA03334FF0805545EA131343EA12633B
:100B40004FEA022245EA111545EA10654FEA0026F0
:100B50000EF000419D4208BF964244F1FD0404F5A9
:100B6000407402D25B084FEA3202B61A65EB030505
:100B70005B084FEA32024FF480104FF4002CB6EBC2
:100B8000020E75EB030E22BFB61A754640EA0C0042
:100B90005B084FEA3202B6EB020E75EB030E22BF82
:100BA000B61A754640EA5C005B084FEA3202B6EBC3
:100BB000020E75EB030E22BFB61A754640EA9C0082
:100BC0005B084FEA3202B6EB020E75EB030E22BF52
:100BD000B61A754640EADC0055EA060E18D04FEA10
:100BE000051545EA16754FEA06164FEAC30343EAB0
:100BF00052734FEAC2025FEA1C1CC0D111F4801F7D
:100C00000BD141EA00014FF000004FF0004CB6E775
:100C100011F4801F04BF01430020B4F1FD0C88BF14
:100C2000BCF5E06F3FF6AFAEB5EB030C04BFB6EB1F
:100C3000020C5FEA500C50F1000041EB045170BD12
:100C40000EF0004E4EEA113114EB5C04C2BFD4EB3F
:100C50000C0541EA045170BD41F480114FF0000EC3
:100C6000013C90E645EA060E8DE60CEA135594EA3F
:100C70000C0F08BF95EA0C0F3FF43BAF94EA0C0F42
:100C80000AD150EA01347FF434AF95EA0C0F7FF4B7
:100C900025AF104619462CE795EA0C0F06D152EA0B
:100CA00003353FF4FDAE1046194622E750EA4106EF
:100CB00018BF52EA43067FF4C5AE50EA41047FF400
:100CC0000DAF52EA43057FF4EBAE12E74FF0FF3C65
:100CD00006E000BF4FF0010C02E000BF4FF0010C36
:100CE0004DF804CD4FEA410C7FEA6C5C4FEA430CAF
:100CF00018BF7FEA6C5C1BD001B050EA410C0CBFFE
:100D000052EA430C91EA030F02BF90EA020F00205F
:100D1000704710F1000F91EA030F58BF994208BFC6
:100D200090422CBFD8176FEAE37040F00100704783
:100D30004FEA410C7FEA6C5C02D150EA013C07D1DA
:100D40004FEA430C7FEA6C5CD6D152EA033CD3D025
:100D50005DF8040B704700BF8446104662468C461F
:100D60001946634600E000BF01B5FFF7B7FF002852
:100D700048BF10F1000F01BD4DF808EDFFF7F4FF7B
:100D80000CBF012000205DF808FB00BF4DF808ED06
:100D9000FFF7EAFF34BF012000205DF808FB00BF29
:100DA0004DF808EDFFF7E0FF94BF012000205DF84B
:100DB00008FB00BF4DF808EDFFF7CEFF94BF012000
:100DC00000205DF808FB00BF4DF808EDFFF7C4FFF9
:100DD00034BF012000205DF808FB00BF4FEA41024C
:100DE00012F5001215D211D56FF47873B3EB62527D
:100DF00012D94FEAC12343F0004343EA505311F0A4
:100E0000004F23FA02F018BF404270474FF0000035
:100E1000704750EA013005D111F0004008BF6FF073
:100E2000004070474FF00000704700BF4A0011D2E9
:100E300012F5001211D20DD56FF47873B3EB625234
:100E40000ED44FEAC12343F0004343EA505323FA40
:100E500002F070474FF00000704750EA013002D1B5
:100E60004FF0FF3070474FF0000070474FEA4102EB
:100E7000B2F1E04324BFB3F5001CDCF1FE5C0DD9F8
:100E800001F0004C4FEAC0024CEA5070B2F1004F42
:100E900040EB830008BF20F00100704711F0804F45
:100EA00021D113F13872BCBF01F00040704741F40A
:100EB00080114FEA5252C2F11802C2F1200C10FA0E
:100EC0000CF320FA02F018BF40F001004FEAC123F2
:100ED0004FEAD32303FA0CFC40EA0C0023FA02F396
:100EE0004FEA4303CCE77FEA625307D150EA01336C
:100EF0001EBF4FF0FE4040F44000704701F000403C
:100F000040F0FE4040F40000704700BF0B46014631
:100F1000184600F01FB800001FB51C46094B1B689F
:100F20000546D86812B9084B1A4600E0074B0292F2
:100F30008DE80A0022462B46054900F02DF801F005
:100F40003BF800BFFC200020EE4F020030500200B2
:100F50003D50020010B5054C13462CB10A4601461F
:100F60000220AFF3008010BD204610BD000000003D
:100F700008B5074B044613B10021AFF30080054BC1
:100F80001868836A03B19847204602F0C5FC00BF89
:100F900000000000705002000EB403B5014603AB20
:100FA000054853F8042B0068019300F015F902B0CE
:100FB0005DF804EB03B07047FC20002070B50E4BC9
:100FC0000E4CE41AA41000251E46A54204D056F883
:100FD000253098470135F8E702F0A0FC084C094B92
:100FE000E41AA41000251E46A54204D056F8253068
:100FF00098470135F8E770BD3C2100203C210020D6
:10100000502100203C210020024B0146186800F0CE
:1010100065B800BFFC200020024B0146186800F0B4
:1010200017B800BFFC20002010B5431E0A449142AF
:1010300004D011F8014B03F8014FF8E710BD02444A
:101040000346934202D003F8011BFAE77047000001
:1010500030B500293ED051F8042C0B1F1E49002A40
:10106000B8BF9B180A680C4612B95A600B6030BDB5
:101070009A420ED919685818824204BF1068526803
:101080005A6004BF09181960236030BD994203D823
:101090000A4651680029F9D1146815199D420AD1F0
:1010A0001B682344D0188142136013D1086803449D
:1010B00013604B680DE002D90C23036030BD186843
:1010C0001C18A14204BF0C684968596004BF00198C
:1010D0001860536030BD00BF4C29002070B5CD1C96
:1010E00025F0030508350C2D38BF0C25002D0646CC
:1010F00003DA0C233360002070BDA942F9D81F4BDE
:101100001C681A462146A1B10B685B1B0ED40B2B41
:1011100003D90B60CC18CD501EE08C420DBF636824
:101120004B686360136018BF0C4615E00C464968B5
:10113000E9E7134C23681BB9304600F0CBFD206073
:101140002946304600F0C6FD431CD2D0C41C24F012
:101150000304A0420AD1256004F10B00231D20F0F6
:101160000700C31A09D05A42E25070BD211A304616
:1011700000F0B0FD0130EED1BBE770BD4C2900207E
:10118000482900209368013B002B10B4936009DAD2
:101190009469A34202DBCBB20A2B03D15DF8044B66
:1011A00000F04ABE1368581C10601970C8B25DF890
:1011B000044B7047F8B506460F461446D518AC42A6
:1011C00008D03A4614F8011B3046FFF7DBFF431CFA
:1011D000F5D100E00020F8BD2DE9F04F9DB00C46A0
:1011E00017460393064618B183690BB901F00EFE4A
:1011F0007F4B9C4201D1746808E07E4B9C4201D138
:10120000B46803E07C4B9C4208BFF468A3891807CC
:101210000CD5236953B10023099320238DF829307D
:1012200030238DF82A30DFF8D4B144E0214630462F
:1012300000F056FE0028EED04FF0FF30D5E0039AC4
:10124000111D12680391002A80F28C80524243F0F3
:1012500002000792049098F800302E2B00F0848052
:10126000032298F80010654801F0B2FE48B140230F
:10127000CBEB000003FA00F0049B1843049008F144
:10128000010898F800105E488DF82810062208F131
:10129000010701F09DFE002800F09580594B002BBE
:1012A00040F08880039B073323F007030833039340
:1012B000099B53440993B846454615F8013B1BB9B1
:1012C000B8EB07090FD003E0252BF9D0A846F3E7C8
:1012D0004B463A4621463046FFF76CFF01307FD03F
:1012E000099B4B44099398F80030002B78D00023D9
:1012F0004FF0FF3204930793059206938DF8533015
:101300001A930127052229783F4801F061FE05F173
:101310000108049B38B13C4A801A07FA00F01843D0
:1013200004904546EEE7D90644BF20228DF85320AD
:101330001A0744BF2B228DF853202A782A2A3FF41B
:101340007EAF079A00210A20A846013598F80030A0
:10135000303B092B03D800FB02320121F4E70029BE
:101360003FF479AF079276E798F801302A2B0BD13A
:10137000039B1A1D1B680392002BB8BF4FF0FF336D
:1013800008F1020805936BE70023059308F10100BB
:1013900019460A258046013098F80020303A092A7B
:1013A00003D805FB01210123F4E7002B3FF458AFDC
:1013B000059155E703AB00932246144B04A9304630
:1013C00000F0BAF807E003AB009322460F4B04A9E4
:1013D000304600F051FBB0F1FF3F82467FF468AF2A
:1013E000A3895B063FF528AF09981DB0BDE8F08FD3
:1013F000C0510200E0510200005202007A50020087
:101400007E5002003915020074500200B51102002E
:101410002DE9FF4755EC104B0D9FDDF830A0002D56
:101420000E4691461946B8BF22462B4627F02007A4
:10143000BBBF05F100431D4600232D23B8BF144652
:10144000462F0B7003D0452F03D1013601E0032155
:1014500000E0022103AB019302AB009332465346F6
:1014600045EC104B00F040FE472F804602D119F0AA
:10147000010F28D0462F08EB060911D198F800304B
:10148000302B0AD10022002320462946FFF774FCA6
:1014900018B9C6F10106CAF80060DAF800309944BC
:1014A0000022002320462946FFF766FC08B93022B7
:1014B00002E0CDF80C9006E0039B994503D9591C36
:1014C00003911A70F8E7039B0E9AC8EB030340469A
:1014D000136004B0BDE8F08773B503460029B8BFB8
:1014E000494203F8022BB4BF2D222B220929427056
:1014F00019DD0DF1070216460A2591FBF5F405FBEF
:1015000014113031092C02F8011D2146F5DC30316F
:10151000541E02F8011CB4421A460AD214F8012BD8
:1015200003F8012BF7E730241A46214402F8024B56
:101530005970101A02B070BD2DE9F04F8BB00C46F7
:1015400016461F46DDF85080054601F0E9FCD0F84C
:1015500000B0584600F0E0FB00230893D8F80030B4
:101560000490073323F0070303F1080294F818905E
:10157000C8F80020D3E90023C4E9122394ED120B2C
:10158000FEF7ACFF012819D100220023D4E9120193
:10159000FFF7FCFB10B12D2384F84330974B984A9A
:1015A000B9F1470F8CBF9046984603232361236807
:1015B00023F0040323604FF0000A8EE094ED120B39
:1015C000FEF78CFF226860B98E4B8F4922F004022F
:1015D000B9F1470F8CBF88469846032323612260E8
:1015E000E9E761684B1C94ED120B08A801D10623B2
:1015F00009E0B9F1670F02D0B9F1470F04D1002912
:1016000040F0AF8101236360002342F480620393C2
:1016100007AB0290009322600DF11B03CDF80490FC
:1016200061682846FFF7F4FE09F0DF03472B804688
:1016300009D1079BD81C02DB6268934230DDA9F117
:1016400002095FFA89F9B9F1650F079912D80139D2
:101650004A4604F150000791FFF73EFF089A8318AD
:10166000012A8246236102DC2268D1072FD501338B
:1016700023612CE0B9F1660F14D10029636807DDFE
:10168000216113B92268D2071DD501330B4419E03B
:1016900013B92268D00701D5023313E0012311E00A
:1016A0004FF06709079B089A934205DB2268236184
:1016B000D10708D5013305E0002BD4BFC3F10203E5
:1016C000012313442361079BA3654FF0000A9DF893
:1016D0001B3013B12D2384F843300097334609AAF9
:1016E0002146284600F052F9013002D14FF0FF3078
:1016F00048E123685A0501D4236965E0B9F1650F13
:1017000040F2D48000220023D4E91201FFF734FB19
:1017100078B301233D4A31462846B8470130E5D029
:10172000089B079A9A420BDB2368D80708D42368E2
:101730009B0740F110814FF0000804F1190905E101
:10174000049B5A4631462846B8470130CED04FF068
:10175000000804F11A09089B013B9845E7DA0123C8
:101760004A4631462846B8470130BFD008F1010843
:10177000F1E7079B002B29DC0123244A3146284648
:10178000B8470130B2D0079B23B9089B13B923682F
:10179000D907CCD5049B5A4631462846B847013074
:1017A000A4D04FF0000904F11A0A079B5B42994547
:1017B00009DA0123524631462846B847013095D010
:1017C00009F10109F1E7089B4246A6E0089AA36DDA
:1017D0009A42A8BF1A46002A914607DC04F11A0370
:1017E0004FF0000A29EAE97905931BE013463146D8
:1017F00042462846B8470130F0D177E785500200CD
:10180000F34F020089500200EF4F0200BB46020076
:101810000123059A31462846B84701303FF466AFA8
:101820000AF1010AA36DC9EB03029245F0DB08EB54
:101830000309079A089B9A420FDB2368DA070CD446
:10184000089B079A9844C9EB08089B1A9845A8BFBB
:101850009846B8F1000F08DC0FE0049B5A46314669
:101860002846B8470130EBD140E743464A46314667
:101870002846B84701303FF439AF4FF0000928EA55
:10188000E87804F11A0A09E0012352463146284655
:10189000B84701303FF42AAF09F10109079A089BC4
:1018A0009B1AC8EB03039945EEDB40E7089A012A2F
:1018B00001DCDB0738D50123424631462846B847CC
:1018C00001303FF413AF049B5A4631462846B847CF
:1018D00001303FF40BAF00220023D4E91201FFF7DF
:1018E0004BFA20B14FF0000804F11A090EE0089BF2
:1018F00008F10102013B19E001234A46314628461E
:10190000B84701303FF4F2AE08F10108089B013BF3
:101910009845F1DB534604F1500231462846B8475A
:1019200001307FF404AFE1E6012342463146284608
:10193000B8470130EED1D9E601234A463146284660
:10194000B84701303FF4D2AE08F10108E368099AC4
:101950009B1A9845F0DBE068099B9842B8BF18468F
:1019600010E0002342F48062039307AB02900093DF
:101970002260CDF804900DF11B032846FFF748FDC7
:10198000804656E60BB0BDE8F08F00BF2DE9F0476A
:1019900091461F460A698B68DDF820809342B8BFE4
:1019A0001346C9F8003091F8432006460C4612B1A0
:1019B0000133C9F800302368990642BFD9F80030D6
:1019C0000233C9F80030256815F0060510D104F17E
:1019D000190A07E00123524639463046C047013014
:1019E0001AD00135E368D9F800209B1A9D42F1DB3B
:1019F00094F843302268003318BF012392060FD5B4
:101A0000E1185A1C302081F84300224494F8451014
:101A100082F84310023303E04FF0FF30BDE8F08757
:101A200004F1430239463046C0470130F4D0226801
:101A3000D9F80050E36802F00602042A08BF5D1BD3
:101A40002269A3680CBF25EAE57500259342C4BF4F
:101A50009B1AED184FF000091A344D4509D00123A7
:101A6000224639463046C0470130D5D009F1010938
:101A7000F3E70020BDE8F0872DE9F04317460A7E22
:101A800085B06E2A984606460C460C9B01F1430E23
:101A900000F0AE8011D8632A22D009D8002A00F0C5
:101AA000BB80582A40F0CA8081F84520834955E020
:101AB000642A1ED0692A1CD0C0E0732A00F0B080CE
:101AC00009D86F2A2ED0702A40F0B8800A6842F0F8
:101AD00020020A603EE0752A24D0782A3AD0ADE090
:101AE0001A6801F14205111D1960136884F842302B
:101AF000A8E021681A6811F0800F02D0111D19604A
:101B000008E011F0400F02F10401196002D0B2F9AF
:101B1000003000E01368002B3CDA2D225B4284F891
:101B2000432037E021681A6811F0800F02D0111DA0
:101B3000196007E011F0400F02F10401196001D0B3
:101B4000138800E01368227E5C496F2A14BF0A22C2
:101B500008221BE078225A4984F845202268186838
:101B600012F0800F00F104051D6003D1550601D568
:101B7000038800E00368D00744BF42F020022260DF
:101B80001BB9226822F0200222601022002084F873
:101B9000430001E049490A226568A560002D08DB81
:101BA000206820F0040020602BB9002D7DD17546FF
:101BB0000CE0002B79D07546B3FBF2F002FB10333A
:101BC000CB5C05F8013D03460028F5D1082A0BD16E
:101BD0002368DA0708D5236962689A42DEBF30239A
:101BE00005F8013C05F1FF35C5EB0E0323612EE03E
:101BF00008681A68496910F0800F03D0101D18603A
:101C0000136808E010F0400F02F104001860136838
:101C100001D0198000E0196000232361754616E0A9
:101C20001A68111D1960156862680021284601F0C4
:101C3000CFF908B1401B6060636804E004F142051D
:101C400084F8422001232361002384F84330CDF837
:101C500000803B4603AA21463046FFF797FE01303D
:101C600002D14FF0FF3026E023692A46394630463C
:101C7000C0470130F5D023689B0710D5002504F13B
:101C8000190907E001234A4639463046C04701306A
:101C9000E7D00135E368039A9B1A9D42F2DBE068C6
:101CA000039B9842B8BF184605E00B7884F8423091
:101CB00004F142058AE705B0BDE8F0838D500200CB
:101CC0009E500200024B0A460146186801F0B4BC5F
:101CD000FC20002038B5064C00230546084623604A
:101CE00001F004FE431C02D1236803B12B6038BD10
:101CF0005429002010F8012B11F8013B012A28BFBC
:101D00009A42F7D0D01A7047034611F8012B03F816
:101D1000012B002AF9D17047034613F8012B002A42
:101D2000FBD1181A013870472DE9F04780463C482E
:101D3000D0F800900E46354615F8014B09EB04002B
:101D4000407800F0080000F0FF0708B12E46F2E7E7
:101D50002D2C03D1B51C7478012703E02B2C04BF74
:101D60007478B51C13B1102B0AD153E0302C4FD12D
:101D7000287800F0DF00582845D16C781023023510
:101D80004FF0FF3C0026BCFBF3FC03FB0CFA6FEAB0
:101D90000A0A304609EB040E9EF801E01EF0040F1B
:101DA00001D0303C0BE01EF0030E1AD0BEF1010F43
